:100000000C9438010C94480B0C94210B0C94600157
:100010000C9460010C9460010C9460010C946001DC
:100020000C9460010C9460010C9460010C946001CC
:100030000C9460010C9460010C9460010C946001BC
:100040000C94D70A0C9460010C94A50A0C947F0AB6
:100050000C9460010C9460010C9460010C9460019C
:100060000C9460010C94600108000000BE922449C9
:10007000123EABAAAA2ABECDCCCC4C3E00000080DA
:10008000BEABAAAAAA3E00000000BF000000803F4D
:100090000000000000084178D3BB4387D1133D190D
:1000A0000E3CC3BD4282AD2B3E68EC8276BED98F3A
:1000B000E1A93E4C80EFFFBE01C4FF7F3F0000007E
:1000C000000000407A10F35A00A0724E1809001088
:1000D000A5D4E80000E87648170000E40B540200BD
:1000E00000CA9A3B000000E1F505000080969800E8
:1000F000000040420F000000A08601000000102711
:1001000000000000E80300000000640000000000A0
:100110000A00000000000100000000002C76D888D2
:10012000DC674F0823DFC1DFAE59E1B1B796E5E3E5
:10013000E453C63AE651997696E8E6C28426EB89FE
:100140008C9B62ED407C6FFCEFBC9C9F40F2BAA59B
:100150006FA5F490055A2AF75C936B6CF9676DC133
:100160001BFCE0E40D47FEF520E6B500D0ED902E37
:100170000300943577050080841E080000204E0A95
:10018000000000C80C333333330F986E12831141D3
:10019000EF8D2114893BE65516CFFEE6DB18D1849E
:1001A0004B381BF77C1D901DA4BBE42420328472C5
:1001B0005E228100C9F124ECA1E53D27000000008A
:1001C000250028002B0000000008000201000003A9
:1001D00004070000000000000000000000002400F0
:1001E00027002A00010204081020408001020408B0
:1001F0001020010204081020040404040404040470
:10020000020202020202030303030303436F6D6D44
:10021000697474656420636F6E6669677572617472
:10022000696F6E202E2E2E004457313030304E67CD
:1002300020696E697469616C697A6564202E2E2E5E
:1002400000232323204457313030304E672D617214
:100250006475696E6F2D72616E67696E672D616E70
:1002600063686F724D61696E2023232300006F0B5A
:1002700011241FBECFEFD8E0DEBFCDBF24E0AEEF2C
:10028000B3E001C01D92A83EB207E1F713E0A0E081
:10029000B1E0E8E1F5E402C005900D92AE3FB10790
:1002A000D9F711E0C8E3D1E004C02197FE010E9414
:1002B000BB1DC733D107C9F70E94A70B0C948A2234
:1002C0000C9400000F931F93FB0123E0F695E79534
:1002D0002A95E1F7E80FF91F8081677001E010E0CF
:1002E00020E030E004C0000F111F221F331F6A9569
:1002F000D2F7442329F0082B00831F910F91089512
:1003000000950823F9CFAF92BF92CF92DF92EF9280
:10031000FF920F931F93CF93DF936C017B018B01AF
:10032000040F151FEB015E01AE18BF08C017D107FF
:1003300059F06991D601ED91FC910190F081E02D89
:10034000C6010995892B79F7C501DF91CF911F91DE
:100350000F91FF90EF90DF90CF90BF90AF900895F6
:10036000FC01538D448D252F30E0842F90E0821BBB
:10037000930B541710F0CF96089501970895FC0140
:10038000918D828D981761F0A28DAE0FBF2FB11D98
:100390005D968C91928D9F5F9F73928F90E00895F0
:1003A0008FEF9FEF0895FC01918D828D981731F0AA
:1003B000828DE80FF11D858D90E008958FEF9FEFFE
:1003C0000895FC01918D228D892F90E0805C9F4FD4
:1003D000821B91098F739927089583E494E00E940A
:1003E000E10121E0892B09F420E0822F089580E0CB
:1003F00090E0892B29F00E94ED0181110C940000FE
:100400000895FC01A48DA80FB92FB11DA35ABF4FA9
:100410002C91848D90E001968F739927848FA68903
:10042000B7892C93A089B1898C91837080648C9357
:10043000938D848D981306C00288F389E02D808106
:100440008F7D80830895EF92FF920F931F93CF9338
:10045000DF93EC0181E0888F9B8D8C8D98131AC0FF
:10046000E889F989808185FF15C09FB7F894EE89E6
:10047000FF896083E889F989808183708064808343
:100480009FBF81E090E0DF91CF911F910F91FF908E
:10049000EF900895F62E0B8D10E00F5F1F4F0F7336
:1004A0001127E02E8C8D8E110CC00FB607FCFACFF1
:1004B000E889F989808185FFF5CFCE010E9401028C
:1004C000F1CFEB8DEC0FFD2FF11DE35AFF4FF082C2
:1004D0009FB7F8940B8FEA89FB8980818062CFCF28
:1004E000CF93DF93EC01888D8823B9F0AA89BB896B
:1004F000E889F9898C9185FD03C0808186FD0DC056
:100500000FB607FCF7CF8C9185FFF2CF808185FF76
:10051000EDCFCE010E940102E9CFDF91CF91089586
:1005200090E0FC01EA53FE4F2491FC01EC51FE4F98
:100530003491FC01E850FE4FE491EE23C9F02223F0
:1005400039F0233001F1A8F4213019F1223029F1DA
:10055000F0E0EE0FFF1FE454FE4FA591B4918FB76A
:10056000F894EC91611126C030953E233C938FBFE7
:1005700008952730A9F02830C9F0243049F7809138
:1005800080008F7D03C0809180008F7780938000F2
:10059000DFCF84B58F7784BDDBCF84B58F7DFBCF74
:1005A0008091B0008F778093B000D2CF8091B0005F
:1005B0008F7DF9CF3E2BDACFCF93DF9390E0FC0114
:1005C000EC51FE4F249188509E4FFC01849188236A
:1005D000D1F090E0880F991FFC01E652FE4FA591E3
:1005E000B491FC01E454FE4FC591D49161110EC049
:1005F0009FB7F8948C91E22FE0958E238C932881FD
:10060000E223E8839FBFDF91CF9108958FB7F894DD
:10061000EC91E22BEC938FBFF6CF3FB7F89480912B
:10062000080490910904A0910A04B0910B0426B526
:10063000A89B05C02F3F19F00196A11DB11D3FBF1A
:10064000BA2FA92F982F8827BC01CD01620F711DE9
:10065000811D911D42E0660F771F881F991F4A95E3
:10066000D1F708958F929F92AF92BF92CF92DF926F
:10067000EF92FF924B015C010E940D036B017C0124
:100680000E940D036C197D098E099F09683E734015
:1006900081059105A8F321E0821A9108A108B1080B
:1006A00088EEC80E83E0D81EE11CF11C8114910471
:1006B000A104B10429F7FF90EF90DF90CF90BF9095
:1006C000AF909F908F900895089561E00E949002EE
:1006D00080911104882361F09FB7F8942091110450
:1006E00080910204213019F48DBB9FBF08958FBF04
:1006F0000895E0910001F0910101408131819091D4
:100700001104992381F02FB7F8949091110491303E
:1007100079F49DB3909302045DB390911004909589
:1007200095239DBB2FBF4CBD3DBD60E00C94900256
:1007300020930204F8CF8EBD00000DB407FEFDCF5C
:100740008EB50895982F80ED890F8A3070F08FE96B
:10075000890F863018F489EA890F08958FEB890F85
:10076000863010F489ECF8CF8FEF08958091000463
:1007700090E09C013595279555E0959587955A957C
:10078000E1F7822B80FD06C08091010482FB88275F
:1007900080F9089581E008958091FF0390913E04CF
:1007A000992339F0982F907681E0903629F080E0F7
:1007B000089585FB882780F908957F928F929F92F4
:1007C000AF92BF92CF92DF92EF92FF920F931F935F
:1007D000CF93DF9300D01F92CDB7DEB7B42EA52EF6
:1007E00079016F3F710501F5898301E0709008017F
:1007F000872D0E947903CE0101964C016C0110E017
:10080000C60188199909801791070CF10B2D1A2D33
:10081000E00EF11E0E151F0501F180E00E949B0302
:10082000F80181938F01F6CF806489836038710568
:1008300018F46A8302E0DACF862F80688A83660F15
:10084000672F661F770B71956B8303E0CFCFF6019F
:1008500081916F010E949B03D3CF8FE090E00197BD
:10086000F1F7872D0F900F900F90DF91CF911F918F
:100870000F91FF90EF90DF90CF90BF90AF909F903F
:100880008F907F900C9465039B01672B31F0AC0136
:100890006FEF70E081E10C94DD030895CF93DF9357
:1008A00000D000D0CDB7DEB724E030E0AE014F5F1E
:1008B0005F4F6FEF70E080E10E94DD0389819A81D4
:1008C000937020913E04222321F08330910508F09B
:1008D00002970F900F900F900F90DF91CF91089596
:1008E00024E030E04CE254E06FEF70E083E00C94E1
:1008F000DD0324E030E04EEF53E06FEF70E08FE077
:100900000C94DD037F928F929F92AF92BF92CF9211
:10091000DF92EF92FF920F931F93CF93DF9300D05C
:100920001F92CDB7DEB7D42EC52E79016F3F71056A
:1009300001F58068898301E070900801872D0E948D
:100940007903CE0101964C015C0110E0C5018819C4
:1009500099098017910704F10D2D1C2DE00EF11E51
:100960000E151F05F9F0F80181918F010E949B037C
:10097000F7CF806C89836038710518F46A8302E0D0
:10098000DBCF862F80688A83660F672F661F770B01
:1009900071956B8303E0D0CFF50181915F010E94D7
:1009A0009B03D4CF8FE090E00197F1F7872D0F9054
:1009B0000F900F90DF91CF911F910F91FF90EF90CB
:1009C000DF90CF90BF90AF909F908F907F900C94CE
:1009D0006503CF93DF93EB0120913E042111229612
:1009E0009E01AC016FEF70E089E00E948204C09329
:1009F000190480911A04807E80931A0425E030E067
:100A000049E154E06FEF70E088E0DF91CF910C9402
:100A10008204EEEFF3E08081886F808324E030E091
:100A2000AF016FEF70E08FE00C9482040E947904B4
:100A30008091FE0390E0880F892F881F990B892BE6
:100A4000A9F30C940905EEEFF3E0828182628283C0
:100A500083818460838324E030E0AF016FEF70E036
:100A60008FE00C948204EEEFF3E081818F66818346
:100A700024E030E0AF016FEF70E08FE00C9482046F
:100A800024E030E042E254E06FEF70E084E00C9448
:100A90008204CF93DF9300D000D0CDB7DEB7809132
:100AA0002A049FEF980F9230A8F580912B04813093
:100AB00009F580911304811104C085E789838A8335
:100AC0005EC085E7898385E58A8385E38B8385E13D
:100AD0008C8324E030E0AE014F5F5F4F6FEF70E03A
:100AE0008EE10E9482040F900F900F900F90DF9183
:100AF000CF910895823069F780911304811102C06B
:100B000087E6DCCF87E6898387E48A8387E28B8365
:100B100087E0DECF833011F580912B04813071F4B2
:100B200080911304811102C08FE6C8CF8FE68983BC
:100B30008FE48A838FE28B838FE0CACF823049F6BD
:100B400080911304811102C08BE8B8CF8BE88983B0
:100B50008BE68A838BE48B838BE2BACF843011F5EA
:100B600080912B04813069F480911304811102C0BB
:100B70008FE5A4CF8FE589838FE38A838FE18B8311
:100B8000A7CF823009F0A5CF80911304811102C054
:100B90008AE994CF8AE989838AE78A838AE58B8305
:100BA0008AE396CF853019F580912B04813071F45A
:100BB00080911304811102C088E480CF88E4898386
:100BC00088E28A8388E08B838EE082CF823009F0CE
:100BD00080CF80911304811102C085E86FCF85E832
:100BE000898385E68A8385E48B8385E271CF8730AC
:100BF00009F06FCF80912B04813071F48091130440
:100C0000811102C082E95ACF82E9898382E78A830F
:100C100082E58B8382E35CCF823009F05ACF8091EA
:100C20001304811102C081ED49CF81ED898381EBED
:100C30008A8381E78B8381E54BCFCF93DF9300D00D
:100C4000CDB7DEB780912B048130D9F480911404A4
:100C5000811105C087E0898386E18A8303C083E030
:100C600089831A8222E030E0AE014F5F5F4F66E079
:100C700078E18EE20E9482040F900F90DF91CF9175
:100C80000895823079F787E0898386E0E6CFCF93B5
:100C9000DF931F92CDB7DEB780911404811110C08D
:100CA0008DE0898321E030E0AE014F5F5F4F66E069
:100CB00078E08EE20E9482040F90DF91CF91089538
:100CC00087E0EFCF0F931F93CF93DF9300D000D037
:100CD0001F92CDB7DEB78B0189831A8222E030E004
:100CE000AE014F5F5F4F64E070E08DE20E948204CE
:100CF00083E08B8321E030E0AE014D5F5F4F66E023
:100D000070E08DE20E94820481E08C8321E030E07B
:100D1000AE014C5F5F4F66E070E08DE20E9482049E
:100D200024E030E0A8016AE070E08DE20E94DD037B
:100D30001D8221E030E0AE014B5F5F4F66E070E066
:100D40008DE20E9482040F900F900F900F900F90F1
:100D5000DF91CF911F910F910895FC010190002028
:100D6000E9F73197AF01481B590BBC0183E494E0CC
:100D70000C9483010F931F93CF93DF938C01D0E0EA
:100D8000C0E0F801EC0FFD1F6491662341F083E49D
:100D900094E00E942302892B11F02196F2CF8CE877
:100DA00092E00E94AD068C0F9D1FDF91CF911F91A5
:100DB0000F910895CF93DF930E94AD06EC018CE86C
:100DC00092E00E94AD068C0F9D1FDF91CF91089598
:100DD000CF93DF93FC01448155816081718183E46D
:100DE00094E00E948301EC018CE892E00E94AD0641
:100DF0008C0F9D1FDF91CF9108959F92AF92BF926C
:100E0000CF92DF92EF92FF920F931F93CF93DF93D6
:100E100000D000D01F92CDB7DEB78E010F5F1F4FFD
:100E200085E0F80111928A95E9F725E030E0A80104
:100E300070E060E085E10E94DD03F801B0E0A0E031
:100E4000912CA12CB12CC12CD12CE12CF12C10E037
:100E5000219130E040E050E060E070E080E090E020
:100E60000A2F0E94C11D922AA32AB42AC52AD62A73
:100E7000E72AF82A192B1896A832B10549F7292D27
:100E80003A2D4B2D5C2D6D2D7E2D8F2D912F0F909A
:100E90000F900F900F900F90DF91CF911F910F91B6
:100EA000FF90EF90DF90CF90BF90AF909F9008950C
:100EB000EFE3F4E084E0DF011D928A95E9F780E436
:100EC000808324E030E0AF016FEF70E08DE00C94A0
:100ED0008204FF920F931F93CF93DF9300D000D033
:100EE000CDB7DEB7F82E8E010F5F1F4F84E0F801FB
:100EF00011928A95E9F724E030E0A80170E060E003
:100F000086E30E94DD03F11005C019828A818E7F7D
:100F10008A830DC0F1E089818C7F8160FF1631F0FA
:100F200082E0F81216C089818C7F8260898322E07A
:100F300030E0A80170E060E086E30E9482040F9038
:100F40000F900F900F90DF91CF911F910F91FF9015
:100F5000089581E0898383E0DBCFCF93DF93CFE3F4
:100F6000D4E084E0FE0111928A95E9F740913E04B5
:100F700081E0482770E060E0CE010E946201888134
:100F80008260888324E030E0AE016FEF70E08DE096
:100F9000DF91CF910C9482042F923F924F925F92F7
:100FA0006F927F928F929F92BF92CF92DF92EF9239
:100FB000FF920F931F93CF93DF9300D000D000D008
:100FC000CDB7DEB7B82E7A836983D8018DB79EB7C7
:100FD0009C838B83EDB7FEB7E01BF10B0FB6F89443
:100FE000FEBF0FBEEDBF3196FE83ED8319012A01CE
:100FF000612C712C43017F01D12CC12C9101A201E4
:10100000B301C4010C2D0E94DC1DF70121937F0167
:10101000F8E0CF0ED11CC701ED81FE818E1B9F0B26
:101020008A179B075CF39D01AF0169817A818B2D43
:101030000E9482042B813C810FB6F8943EBF0FBE04
:101040002DBF26960FB6F894DEBF0FBECDBFDF9141
:10105000CF911F910F91FF90EF90DF90CF90BF90B5
:101060009F908F907F906F905F904F903F902F90C8
:1010700008950F931F9301E010E020EE30E040E070
:1010800050E063E070E086E30E94CC0720EF30E0A0
:1010900040E050E063E070E086E30E94CC071F91DF
:1010A0000F9108950E9479048091FE0390E0880FCB
:1010B000892F881F990B892B11F00E9409058091B7
:1010C000FF0382FF0CC084608093FF0324E030E0C4
:1010D0004EEF53E06FEF70E08FE00E94820490913A
:1010E000FF03292F30E08091000494FD14C0220FEB
:1010F000232F221F330B232B71F480FD0CC082FDA4
:101100000AC00E94B60381111EC00E94CC0388232E
:10111000E9F00C94330590699093FF0390910104DA
:1011200090629093010485608093000424E030E095
:101130004EEF53E06FEF70E08FE00E9482040E9458
:1011400058070C9439080E942305F9CF0895CF93CE
:10115000EFE3F4E084E0DF011D928A95E9F7409126
:101160003E0481E0482770E060E0CF010E94620108
:101170008091400481608093400424E030E04FE39C
:1011800054E06FEF70E08DE00E9482040E947904C9
:101190000E94CC03C82F811116C024E030E04CE03F
:1011A00054E06FEF70E08EE00E94DD030E94B60312
:1011B000882361F30E9423050E9458070E94390882
:1011C0008C2FCF9108950E943305FACF0F931F9370
:1011D000CF93DF93EC0188819981009759F02A81A0
:1011E0003B812617370730F081E0DF91CF911F91C7
:1011F0000F9108958B016F5F7F4F0E941C1F009716
:1012000059F0998388831B830A832C813D81232B8A
:1012100059F7FC011082E8CF80E0E7CFEF92FF9210
:101220000F931F93CF93DF936115710541F480E015
:10123000DF91CF911F910F91FF90EF90089541158D
:101240005105B1F07B01EC010C811D81040F151FCC
:10125000B8010E94E608882351F3288139818C81E6
:101260009D81B701820F931F0E94E21F1D830C8393
:1012700081E0DECFEF92FF920F931F93CF93DF9326
:10128000CDB7DEB764970FB6F894DEBF0FBECDBF03
:101290007C01CB01BA018E010F5F1F4F22E044E0B9
:1012A0000E94D517FC0101900020E9F73197AF01AA
:1012B000481B590BBC01C7010E940E0964960FB66A
:1012C000F894DEBF0FBECDBFDF91CF911F910F917C
:1012D000FF90EF900895FB0101900020E9F731970E
:1012E000AF01461B570B0C940E09FC0180819181C4
:1012F000009711F00C94931E0895EF92FF920F93B4
:101300001F93CF93DF93EC017B01198218821B821C
:101310001A821D821C82FB0101900020E9F731979F
:101320008F01061B170BB8010E94E608288139813E
:10133000811113C02115310519F0C9010E94931EB6
:10134000198218821D821C821B821A82DF91CF9122
:101350001F910F91FF90EF9008951D830C83B701AB
:10136000C901DF91CF911F910F91FF90EF900C94E5
:10137000E21F2F923F924F925F926F927F928F92D5
:101380009F92AF92BF92CF92DF92EF92FF92CF9354
:10139000DF93CDB7DEB72A970FB6F894DEBF0FBE46
:1013A000CDBF22E030E0AE014B5F5F4F66E070E002
:1013B00082E10E94DD0324E030E0AE014F5F5F4F29
:1013C0006FEF70E080E10E94DD036D807E806B81B5
:1013D00070E044E0769567954A95E1F78C8120E1CD
:1013E000829FC0011124682B792B80912B042DE65C
:1013F000222E26E5322E25E1422E20E4522E3DE318
:10140000C32E3AE8D32E33EEE32E32E4F32E8130AE
:1014100081F08DE6282E86E5382E85E9482E8FE36B
:10142000582E91EEC92E9AE7D92E93EFE92E92E429
:10143000F92E90E080E00E94641A4B015C01B30138
:1014400090E080E00E94641A20E030E040E058E440
:101450000E94C51A6F83788789879A87A5019401AE
:10146000C501B4010E94C51A9B01AC016F8178854A
:1014700089859A850E94271C0E942E1D20E030E05D
:1014800040E251E40E94C51AA70196010E94BA1BCE
:101490006B017C0120E030E040EB52EC0E945F1ACF
:1014A0001816A4F420E030E040EB52E4C701B60186
:1014B0000E94BB1BA20191010E94C51A9B01AC01B5
:1014C000C701B6010E94BB1B6B017C01C701B601BD
:1014D0002A960FB6F894DEBF0FBECDBFDF91CF9135
:1014E000FF90EF90DF90CF90BF90AF909F908F9044
:1014F0007F906F905F904F903F902F9008951F9234
:101500000F920FB60F9211242F933F934F935F9337
:101510006F937F938F939F93AF93BF93EF93FF93BB
:1015200083E494E00E940102FF91EF91BF91AF919B
:101530009F918F917F916F915F914F913F912F91EB
:101540000F900FBE0F901F9018951F920F920FB61D
:101550000F9211242F938F939F93EF93FF93E0911A
:101560005304F09154048081E0915904F0915A049D
:1015700082FD1BC0908180915C048F5F8F732091EE
:101580005D04821741F0E0915C04F0E0ED5BFB4FFD
:10159000958F80935C04FF91EF919F918F912F9194
:1015A0000F900FBE0F901F9018958081F4CF1F925F
:1015B0000F920FB60F9211242F933F938F939F9307
:1015C000AF93BF938091040490910504A091060409
:1015D000B09107043091030423E0230F2D3758F511
:1015E0000196A11DB11D20930304809304049093E0
:1015F0000504A0930604B093070480910804909119
:101600000904A0910A04B0910B040196A11DB11D1B
:101610008093080490930904A0930A04B0930B04E8
:10162000BF91AF919F918F913F912F910F900FBEDE
:101630000F901F90189526E8230F0296A11DB11D4B
:10164000D2CF1F920F920FB60F9211242F933F9378
:101650004F935F936F937F938F939F93AF93BF93BA
:10166000EF93FF93E0910401F09105010995FF913B
:10167000EF91BF91AF919F918F917F916F915F910A
:101680004F913F912F910F900FBE0F901F90189583
:101690001F920F920FB60F9211242F933F934F93E7
:1016A0005F936F937F938F939F93AF93BF93EF93CA
:1016B000FF93E0910201F09103010995FF91EF91F1
:1016C000BF91AF919F918F917F916F915F914F915A
:1016D0003F912F910F900FBE0F901F901895E3E44C
:1016E000F4E01382128288EE93E0A0E0B0E08483FD
:1016F0009583A683B7838EE792E09183808385EC00
:1017000090E09587848784EC90E09787868780ECCB
:1017100090E0918B808B81EC90E0938B828B82ECBC
:1017200090E0958B848B86EC90E0978B868B118E66
:10173000128E138E148EE2EEF4E080E5808381E059
:101740008183E0EEF4E091E5908381830895CF9367
:10175000DF93CDB7DEB7C55BD1090FB6F894DEBF16
:101760000FBECDBF789484B5826084BD84B581609E
:1017700084BD85B5826085BD85B5816085BD80915C
:101780006E00816080936E001092810080918100D4
:1017900082608093810080918100816080938100CC
:1017A000809180008160809380008091B10084608E
:1017B0008093B1008091B00081608093B0008091EF
:1017C0007A00846080937A0080917A0082608093AE
:1017D0007A0080917A00816080937A0080917A000B
:1017E000806880937A001092C100E0915304F091D8
:1017F000540482E08083E0914F04F0915004108201
:10180000E0915104F091520480E1808310925B04D6
:10181000E0915704F091580486E08083E0915504EC
:10182000F0915604808180618083E0915504F091AD
:101830005604808188608083E0915504F0915604BD
:10184000808180688083E0915504F0915604808106
:101850008F7D808381E492E00E94BA0665E070E0AB
:1018600080E090E00E9432038AE0809308018FEFCD
:101870008093070189E08093060160E00E94DC020A
:101880001FB7F89480911204811127C0E2E0F2E0C2
:101890008491EEEEF1E09491E82FF0E0EE0FFF1F5F
:1018A000E652FE4FA591B491EC91E92321F461E059
:1018B0008AE00E94900261E08AE00E94DC028CB51E
:1018C00080618CBD8CB580648CBD61E08DE00E9430
:1018D000DC0261E08BE00E94DC02809112048F5FE9
:1018E000809312041FBF809107018F3F91F08230D7
:1018F00011F40C941F15833061F482E598E0909305
:10190000050180930401809169008C6080936900D7
:10191000E99A80910701109108018F3F11F18230FF
:1019200011F40C942D15833011F00C94301581E0D6
:101930002FB7F89491E0882339F092E0813021F0BC
:1019400082E08093110490E080911004892B8093B1
:10195000100480911104811103C081E0809311046F
:101960002FBF61E0812F0E94DC0261E0812F0E9485
:101970009002109106019E012F5F3F4F79011F3F9A
:1019800011F00C94331580EE94E090930101809354
:10199000000181E00E94690719821A8222E030E08A
:1019A000A70164E070E086E30E94820402E010E098
:1019B00020E030E0A90170E060E08CE20E94CC07FA
:1019C00004E010E020E030E0A90166E070E08CE285
:1019D0000E94CC0701E010E020E030E0A90162E0C5
:1019E00070E08CE20E94CC0722E030E040E050E062
:1019F00062E070E08CE20E94CC0720E030E0A901B8
:101A000063E070E086E30E94CC0761E070E080E074
:101A100090E00E94320320EF30E040E050E063E0CD
:101A200070E086E30E94CC0780EE94E09093010181
:101A30008093000181E00E94690765E070E080E02A
:101A400090E00E943203198221E030E0A70170E0AB
:101A500060E084E20E94DD0389818460898321E063
:101A600030E0A70170E060E084E20E948204B701E8
:101A70008EE190E00E946206898181110C944D15DF
:101A800080E7CF57DF4F8883C158D04021E030E056
:101A9000AE014F575F4F6EE070E08BE20E94820410
:101AA000BE016F577F4F84E090E00E946206A4E081
:101AB000CA2ED701EC2D1D92EA95E9F7C757DF4FE3
:101AC00019821882C958D04024E030E0A70170E0A4
:101AD00060E086E30E94DD0322E030E0AE0147577C
:101AE0005F4F66E070E08DE20E94DD03DD24D39459
:101AF000D982B3E0BB2EBA82C757DF4F1882C958CC
:101B0000D04080E8C657DF4F8883CA58D04022E0D3
:101B100030E0A70170E060E086E30E94820483E089
:101B20000E94690765E070E080E090E00E94320367
:101B300022E030E0AE0147575F4F66E070E08DE293
:101B40000E94820461E070E080E090E00E94320335
:101B500080E00E94690765E070E080E090E00E940C
:101B6000320319828A8182708A8322E030E0A701E1
:101B700070E060E086E30E948204B70188E090E0B4
:101B80000E946206B70189E090E00E94620680E050
:101B90000E94690765E070E080E090E00E943203F7
:101BA00082EE94E090930101809300010E94700402
:101BB00024E030E042E254E06FEF70E084E00E9405
:101BC000DD0324E030E045E154E06FEF70E08FE1A9
:101BD0000E94DD0325E030E049E154E06FEF70E062
:101BE00088E00E94DD0324E030E04CE054E06FEF39
:101BF00070E08EE00E94DD0302E010E020E030E0C3
:101C0000A9016AE070E08CE20E94CC0788E292E0D1
:101C10000E94BA060E94580740E060E170E082E24C
:101C200094E00E94620140E061E170E082E294E0B1
:101C30000E94620141E06DE170E082E294E00E9466
:101C40006201D092130440E062E170E082E294E02D
:101C50000E9462010E9440050E944905D0923E0404
:101C60001092140480911704D092090195E5909385
:101C7000150495E090932A0490911A049378906249
:101C800090931A04909124049F7B90932404D09203
:101C9000200490911B04D0922B04907C9562909329
:101CA0001B0490E190931E0499E090931F048170AF
:101CB000846C8093170488E180931804B092210407
:101CC0000E94400524E030E045E154E06FEF70E011
:101CD0008FE10E94820425E030E049E154E06FEF9B
:101CE00070E088E00E94820480E7898388E88A8324
:101CF00022E030E0A70164E070E083E20E94820409
:101D000087E0898389EA8A8382E08B8385E28C83FA
:101D100024E030E0A7016CE070E083E20E948204DE
:101D200085E389831A8222E030E0A70162E170E056
:101D300083E20E948204D9821A8222E030E0A70165
:101D400062E070E087E20E94820487E889831A8259
:101D500022E030E0A70164E070E087E20E948204A4
:101D600080E289831A8222E030E0A70166E070E019
:101D700087E20E94820482E589831A828AE18B834A
:101D800083E38C8324E030E0A70168E070E087E221
:101D90000E94820488E289831A8222E030E0A7014F
:101DA00066E270E087E20E9482040E9447060E9479
:101DB0001D068AEE898381E58A8322E030E0A7014F
:101DC00064E078E28EE20E9482040E94490588ED78
:101DD000898321E030E0A7016BE070E088E20E9497
:101DE000820480EE89838FE38A838EE18B831C8259
:101DF00024E030E0A7016CE070E088E20E948204F9
:101E000080EC898321E030E0A7016BE070E08AE29A
:101E10000E9482048DE18983CA821B8288E08C83C0
:101E20008EEBCF57DF4F8883C158D04021E030E0A0
:101E3000AE014F575F4F6BE070E08BE20E9482046F
:101E400024E030E0A70167E070E08BE20E948204AA
:101E50008091220481608093220440E061E070E080
:101E600082E294E00E94620140E062E070E082E27F
:101E700094E00E94620141E063E070E082E294E05D
:101E80000E94620140E064E070E082E294E00E941F
:101E9000620140E065E070E082E294E00E9462014D
:101EA00040E066E070E082E294E00E94620140E07F
:101EB00067E070E082E294E00E94620141E068E045
:101EC00070E082E294E00E9462010E9440050FE807
:101ED00012E0670187EAA82E82E0B82ED8018C9123
:101EE0000E94A203982EF80181810E94A20392947D
:101EF000F0EF9F22980ED6019D926D010D5F1F4F4E
:101F0000A016B10659F788E0F701DE01AF57BF4FC1
:101F100001900D928A95E1F7C857DF4F8881C85824
:101F2000D0408983C957DF4F8881C758D0408A8302
:101F3000CA57DF4F8881C658D0408B83CB57DF4FBD
:101F40008881C558D0408C83CC57DF4F8881C458D6
:101F5000D0408D83CD57DF4F8881C358D0408E83CA
:101F6000CE57DF4F8881C258D0408F83CF57DF4F85
:101F70008881C158D040888728E030E0A7016FEF02
:101F800070E081E00E94820410E419831A8222E04A
:101F900030E0A70164E270E087E20E94820481E100
:101FA000898301E00A8322E030E0A70160E270E06B
:101FB00087E20E94820488E8898383E18A8322E0A1
:101FC00030E0A7016FEF70E08CE00E948204809106
:101FD00025048061809325040E9440058AE980934E
:101FE0002E0480E680932F0424E030E04CE254E09D
:101FF0006FEF70E083E00E94820400932C04109243
:102000002D0424E030E04CE254E06FEF70E083E018
:102010000E94820484E390E490932904809328042E
:10202000909327048093260484E3CF57DF4F88835F
:10203000C158D040CE57DF4F1883C258D040898353
:102040001A8322E030E0AE014F575F4F6FEF70E030
:1020500088E10E94820422E030E0A70164E078E198
:102060008EE20E9482048CE092E00E94BA0624E094
:1020700030E0AE014F575F4F6FEF70E080E00E949D
:10208000DD03CF57DF4F8881C158D040982F9F7014
:102090001F929F9382958F701F928F93CE57DF4F21
:1020A0008881C258D0401F928F93CC57DF4F8881D0
:1020B000C458D0408F93CD57DF4F8881C358D0404C
:1020C0008F9387EA92E09F938F93FF92EF920E9403
:1020D000E91F83ED92E00E94AD06C7010E94DA0677
:1020E00028E030E0AE014F575F4F6FEF70E081E0C6
:1020F0000E94DD03CF57DF4F8881C158D0401F9227
:102100008F93CE57DF4F8881C258D0401F928F9354
:10211000CD57DF4F8881C358D0401F928F93CC5743
:10212000DF4F8881C458D0401F928F93CB57DF4F29
:102130008881C558D0401F928F93CA57DF4F88813E
:10214000C658D0401F928F93C957DF4F8881C75818
:10215000D0401F928F93C857DF4F8881C858D04016
:102160001F928F938FED92E09F938F93FF92EF9248
:102170000E94E91FEDB7FEB7B0960FB6F894FEBF08
:102180000FBEEDBF87E093E00E94AD06C7010E943D
:10219000DA0624E030E0AE014F575F4F6FEF70E09A
:1021A00083E00E94DD03CE57DF4F8881C258D040C4
:1021B0008F93CF57DF4F8881C158D0408F93CC5732
:1021C000DF4F8881C458D0408F93CD57DF4F88812F
:1021D000C358D0408F9383E193E09F938F93FF92F6
:1021E000EF920E94E91F82E393E00E94AD06C701CF
:1021F0000E94DA0624E030E0AE0147575F4F6FEFF0
:1022000070E08FE10E94DD0325E030E0AE014F5722
:102210005F4F6FEF70E088E00E94DD032DB73EB79F
:10222000285F3F4F0FB6F8943EBF0FBE2DBFCE576D
:10223000DF4F8881C258D04090E0E5E095958795C2
:10224000EA95E1F7837099278130910509F461C41B
:1022500008F427C4029709F459C487EA93E00E945E
:10226000AD06C7010E94DA06CE0101961C01DE010F
:102270001396C357DF4FB983A883CD58D0400E942F
:10228000A708882309F46CC5EDB7FEB7C555DF4F25
:10229000F983E883CB5AD0400E944E042DB73EB755
:1022A000281B390B0FB6F8943EBF0FBE2DBF4DB79C
:1022B0005EB74F5F5F4F7A01BC01CA010E944404C0
:1022C000D7018C91853C09F058C5C357DF4FE88191
:1022D000F981CD58D04010E111921A95E9F721E427
:1022E00029833CE83A8340E2488BD0903004CC24E8
:1022F000C394CD0CC0923004DB820E9470048091A4
:102300002E048C8380912F048D83F701329688E010
:10231000DE01169601900D928A95E1F70E947004F5
:1023200080912C048E8780912D048F8780910A01E3
:1023300090910B019A8B898B62E170E0C1010E9440
:10234000E9040E94AD070E9416050E94A708882391
:1023500009F4EEC48DB79EB7C055DF4F99838883CB
:10236000C05BD0400E944E047C01ADB7BEB7A81B35
:10237000B90B0FB6F894BEBF0FBEADBF0DB71EB7F9
:102380000F5F1F4FBC01C8010E944404BAE0EB1666
:10239000F10408F464C4F8018185813209F05FC456
:1023A0000E94FD06C956DF4F2883C759D040C85642
:1023B000DF4F3883C859D040C756DF4F4883C959CB
:1023C000D040C656DF4F5883CA59D040C556DF4F5C
:1023D0006883CB59D040C456DF4F7883CC59D04066
:1023E000C356DF4F8883CD59D040C256DF4F988304
:1023F000CE59D040C357DF4FA881B981CD58D040C6
:10240000EBE01D92EA95E9F7F1E4F98388E88A8325
:1024100020E12A8782E08B8752E0F52EFD0CF092B6
:102420003004CB820E94700480912E048C838091B2
:102430002F048D83D80117968D919C919F838E8355
:102440000E94700480912C04888780912D048987D4
:102450006DE070E0C1010E94E9040E94AD070E9496
:10246000160585E0F10111928A95E9F725E030E043
:10247000A10170E060E087E10E94DD03D101F0E09E
:10248000E0E0B12CC12CE12C10E02D9130E040E0D7
:1024900050E060E070E080E090E00E2F0E94C11DEF
:1024A0005B2C522A4C2C432AE42AC355DF4FE88286
:1024B000CD5AD040152BC255DF4F1883CE5AD0408D
:1024C000B52CC42C3896E832F105F9F68BE697E185
:1024D0000197F1F70E94A708882309F41BC42DB7C0
:1024E0003EB7CE54DF4F39832883C25BD0400E9471
:1024F0004E048C014DB75EB7481B590B0FB6F894CC
:102500005EBF0FBE4DBF8DB79EB701963C01B801AF
:102510000E9444040331110508F490C3D3011996B5
:102520008C91833209F08AC30E94FD06C156DF4FA9
:102530002883CF59D040C056DF4F3883C05AD0408F
:10254000CF55DF4F4883C15AD040CE55DF4F588317
:10255000C25AD040CD55DF4F6883C35AD040CC55C6
:10256000DF4F7883C45AD040CB55DF4F8883C55A9C
:10257000D040CA55DF4F9883C65AD04087E0C35732
:10258000DF4FE881F981CD58D04011928A95E9F763
:10259000F1E4F98388E88A8310E11A8721E02B8728
:1025A00083E08D0D80933004FB8282E08C871D8652
:1025B0000E94700480912E048C8380912F048D835F
:1025C000D30117968D919C919F838E830E947004F6
:1025D00080912C04888780912D0489876DE070E0BC
:1025E000C1010E94E9040E94AD070E941605D301B3
:1025F0005296F0E0E0E0C157DF4F1882CF58D0404C
:10260000C057DF4F1882C059D040CF56DF4F1882D5
:10261000C159D040CE56DF4F1882C259D040CD5656
:10262000DF4F1882C359D040CC56DF4F1882C459AF
:10263000D040CB56DF4F1882C559D040CA56DF4F25
:102640001882C659D0402D9130E040E050E060E063
:1026500070E080E090E00E2F0E94C11DC157DF4F57
:102660001881CF58D040212BC057DF4F1881C05957
:10267000D040312BCF56DF4F1881C159D040412B6C
:10268000CE56DF4F1881C259D040512BCD56DF4F67
:102690001881C359D040612BCC56DF4F1881C459E3
:1026A000D040712BCB56DF4F1881C559D040812BBC
:1026B000CA56DF4F1881C659D040912BC157DF4F02
:1026C0002883CF58D040C057DF4F3883C059D040FF
:1026D000CF56DF4F4883C159D040CE56DF4F588385
:1026E000C259D040CD56DF4F6883C359D040CC5635
:1026F000DF4F7883C459D040CB56DF4F8883C5590C
:10270000D040CA56DF4F9883C659D0403896E83239
:10271000F10509F098CF63012EE0C20ED11CF0E064
:10272000E0E0912CA12CB12CE12CD6012D916D0172
:1027300030E040E050E060E070E080E090E00E2F9C
:102740000E94C11D922ACC54DF4F9882C45BD040B6
:10275000A32ACB54DF4FA882C55BD0401B2D142B7E
:10276000E52AC155DF4FE882CF5AD040B12E3896C6
:10277000E832F105D1F6BAE06B0E711CF0E0E0E052
:10278000812C912CA12CB12CC12CD12CE12CF12C21
:10279000D3012D913D0130E040E050E060E070E079
:1027A00080E090E00E2F0E94C11D282939294A2976
:1027B0005B296C297D298E299F2949015A016B01CA
:1027C0007C013896E832F10519F7C955DF4F588278
:1027D000C75AD040C855DF4F4882C85AD040C35569
:1027E000DF4FB881CD5AD040C755DF4FB883C95AA3
:1027F000D040C255DF4FE881CE5AD040C655DF4F9A
:10280000E883CA5AD040CC54DF4F4880C45BD040E4
:10281000CB54DF4F5880C55BD040612EC155DF4F90
:102820007880CF5AD040C301B201681979098A096A
:102830009B090E94641A6B017C01C955DF4F6881B6
:1028400079818A819B81C75AD040C956DF4F288140
:1028500039814A815B81C759D040621B730B840B5D
:10286000950B0E94641AC956DF4F688379838A8367
:102870009B83C759D040C156DF4F688179818A81D7
:102880009B81CF59D040C955DF4F288139814A817A
:102890005B81C75AD040621B730B840B950B0E945F
:1028A000641A4B015C01C157DF4F688179818A81CD
:1028B0009B81CF58D04064197509860997090E94F9
:1028C000641AC157DF4F688379838A839B83CF580B
:1028D000D040A5019401C701B6010E94C51A2B0181
:1028E0003C01C157DF4F288139814A815B81CF5834
:1028F000D040C956DF4F688179818A819B81C75951
:10290000D0400E94C51A9B01AC01C301B2010E94D4
:10291000BA1B2B013C01A5019401C701B6010E941D
:10292000BB1BC956DF4F288139814A815B81C7595A
:10293000D0400E94BB1BC157DF4F288139814A819B
:102940005B81CF58D0400E94BB1B9B01AC01C301EF
:10295000B2010E94271C0E94991C0E94D51C2EE5E2
:102960003DEB49E95BE30E94C51A2B013C01109144
:102970002A040E94B9096B017C0180912B048824F0
:102980008394912C813019F032E0832E912C1430F5
:1029900011F0173019F432E0830E911C20E030E082
:1029A00044E752ECC701B6010E94291DF401181634
:1029B0000CF425C120E030E04EEB52ECC701B6012B
:1029C0000E945F1A18160CF4E9C0F401EE0FFF1F05
:1029D000EE0FFF1FEA59FD4F2FE632E143E85AE3BD
:1029E00060817181828193810E94C51AA301920145
:1029F0000E94BB1BC157DF4F688379838A839B8307
:102A0000CF58D04020E030E0A901C157DF4F6881A6
:102A100079818A819B81CF58D0400E945F1A181615
:102A20000CF40CC18DEB97E3A6E8B5E3C157DF4F7B
:102A300088839983AA83BB83CF58D040FFC082E5A7
:102A400098E0909303018093020180916900836074
:102A500080936900E89A0C94890C80E00C94980C9F
:102A60008FEF0C94980C61E0812F0E94DC0260E0F3
:102A7000812F0E94900262E070E080E090E00E946E
:102A8000320360E0812F0E94DC0265E070E080E0AC
:102A900090E00E9432030C94140D8F7180660C94A8
:102AA000410D2EE630E0C557DF4F8881CB58D0402E
:102AB00090E095958795959587958370813061F124
:102AC00050E4823009F0C9CBCD57DF4FE881C358BD
:102AD000D040F0E0F595E795F595E795EF70FF2785
:102AE0003197ED30F10508F0B8CBE758FA4E0C9469
:102AF000BB1D8E15C015C9152D11CC15C3152D1173
:102B00002D119115C6152D112D11BD1520E93AE194
:102B1000CACF22E533E0C7CF50E1D6CF80E490E0C2
:102B200002C080E091E0C457DF4F4881CC58D040CC
:102B30004695469546951F924F93C757DF4F48815C
:102B4000C958D0404F701F924F939F938F931F92FD
:102B50005F933F932F9380E593E09F938F93FF9232
:102B6000EF920E94E91F4DB75EB7425F5F4F0FB60D
:102B7000F8945EBF0FBE4DBF70CB80E092E0D3CF24
:102B800080E094E0D0CF80E096E0CDCF80E098E088
:102B9000CACF80E090E1C7CF80E8C1CFF7FAF094C8
:102BA000F7F8F09492E1A92E91E0B92E10E000E040
:102BB000A8014F5F5F4FC157DF4F59834883CF58FC
:102BC000D040D5012D913D914D915C91C701B60149
:102BD0000E94291D87FD1AC0F5012489358946897F
:102BE0005789C701B6010E945F1A87FF0FC085E0B1
:102BF000809FF001819FF00D1124E80DF91DEE0F6B
:102C0000FF1FEE0FFF1FEE5EFE4FE6CEF4E1AF0EAC
:102C1000B11CC157DF4F08811981CF58D040013115
:102C2000110531F62DEB37E346E855E3C157DF4F89
:102C3000288339834A835B83CF58D040CE54DF4FFB
:102C4000A881B981C25BD0400FB6F894BEBF0FBE59
:102C5000ADBFB1E0C956DF4FB883C759D040C055AA
:102C6000DF4FE881F981C05BD0400FB6F894FEBF1A
:102C70000FBEEDBFC956DF4FF881C759D040FF23C3
:102C800009F463C0C157DF4F288139814A815B81D4
:102C9000CF58D04020933A0430933B0440933C04F7
:102CA00050933D0465EB73E0C1010E947D09C1575B
:102CB000DF4F488159816A817B81CF58D040C10163
:102CC0000E943A096DEB73E0C1010E946B0960EC50
:102CD00073E0C1010E946B090E94B909AB01BC01FC
:102CE000C1010E943A096DEC73E0C1010E946B09B9
:102CF000C1010E94E806C1010E947509C555DF4F58
:102D000028813981CB5AD0400FB6F8943EBF0FBE10
:102D10002DBF26C0C157DF4F188219821A821B822D
:102D2000CF58D040C956DF4F1882C759D04097CFEF
:102D3000C157DF4F188219821A821B82CF58D040A8
:102D4000C956DF4F1882C759D040C555DF4F48815B
:102D50005981CB5AD0400FB6F8945EBF0FBE4DBF1D
:102D600040E050E0452B09F48ACA0E94ED01882317
:102D700009F485CA0E94000082CA19968C9119979D
:102D8000803609F0BBCF1A966D917C9190E080E07F
:102D90000E94641A20E030E04AE754E40E94271CB5
:102DA0004B015C0162ED73E0CE018F579F4F0E9493
:102DB0007D09F70187814AE0B10190E00E94F31795
:102DC000F10101900020E9F73197AF014219530951
:102DD000B101CE018F579F4F0E940E096FED73E036
:102DE000CE018F579F4F0E946B09B501A401CE0100
:102DF0008F579F4F0E943A09CE018F579F4F0E94D5
:102E0000E80690913904D70117968C911797911184
:102E100016C0823009F0C6C018968C918111C2C0CC
:102E20008092350490923604A0923704B092380410
:102E3000B1E0B0933904CE018F579F4F5DCF8330FF
:102E400009F0B0C0F70180858111ACC080923104D7
:102E500090923204A0923304B092340440903A0429
:102E600050903B0460903C0470903D0460913504A8
:102E70007091360480913704909138049B01AC0125
:102E80000E94C51A6B017C01A3019201C301B2012A
:102E90000E94C51AA70196010E94BA1B20E030E0EB
:102EA00040E151E40E94BB1B20E030E0A9010E94F8
:102EB000BB1B2B013C01A5019401C501B4010E947B
:102EC000C51A9B01AC01C701B6010E94BA1B20E0E4
:102ED00030E040E151E40E94BA1B20E030E040E1E4
:102EE00051E40E94BB1B20E030E048EC50E40E941B
:102EF000BB1B6B017C0163EE73E0C1010E947D0985
:102F000020E030E040EA50E4C301B2010E94C51A5B
:102F10004B015C0120E030E0A901C701B6010E942D
:102F2000C51A9B01AC01C501B4010E94BA1B20E087
:102F300030E040EF51E40E94271CAB01BC01C1010D
:102F40000E943A0968EF73E0C1010E946B0920E01A
:102F500030E0A901C301B2010E94C51A4B015C0116
:102F600020E030E040EC50E4C701B6010E94C51AF1
:102F70009B01AC01C501B4010E94BA1B20E030E006
:102F800040EF51EC0E94271CAB01BC01C1010E9423
:102F90003A09C1010E94E80610923904C1010E9459
:102FA000750949CF1092390446CFEF920F931F93C2
:102FB000CF93DF93E80134E047FD34E1042E000CA9
:102FC000550B57FF03C0519541955109E32E022F30
:102FD000242FAE010E941818CE01DF91CF911F91CE
:102FE0000F91EF900895BB274A3031F4992322F4D2
:102FF000BDE2909581959F4F0C94FF17BB27FB0175
:103000005527AA27880F991FAA1FA41710F0A41BE1
:1030100083955051B9F7A05DAA3308F0A95DA1933B
:10302000009779F7B111B1931192CB010C944F1A1B
:10303000A9E0B0E0EEE1F8E10C94891B6A01F22E00
:10304000B02E102FFBE3AF2EA01608F41BE31F5F7A
:10305000012F27E0AE014F5F5F4F0E947719BC013F
:103060008981982F9970913009F43FC09BE2E1FC6F
:1030700004C09E2D9170E0FC3AC05E2D5071E82F87
:10308000E87083FF46C084E0911101C083E0EF2D1A
:10309000E81B8F1508F0E0E0D6018E2F20E25523C3
:1030A00051F1992329F0D6019C93C60101966C0138
:1030B00096012D5F3F4FE2FE24C08EE4D6018C9333
:1030C00091E411969C93119712968C93D9018E2FAF
:1030D00090E281111BC0E20FF32FF11D10828EEFE1
:1030E0009FEF2996ECE00C94A51B9DE2C6CF90E2E1
:1030F000C4CF2D9381508111FCCFCE0ED11CE0E0C6
:10310000D0CF8EE6D6018C9391E6DBCF9D93815094
:10311000E0CF482F447082FF3DC084E0911101C090
:1031200083E08F1510F4EF2DE81BD6018E2F20E2DF
:10313000552309F1992329F0D6019C93C6010196E4
:103140006C0196012D5F3F4FE2FE1BC089E4D60162
:103150008C938EE411968C93119786E412968C933F
:10316000D9018E2F90E2882309F4B5CF9D93815029
:10317000FACF2D9381508111FCCFCE0ED11CE0E00F
:10318000D9CF89E6D6018C938EE611968C93119750
:1031900086E6E4CF9B0177FF02C030E020E0A1E0AB
:1031A000B0E0911102C0B0E0A0E0F9013196AE0F9D
:1031B000BF1F8B2C912CBB2009F461C05401EFEF91
:1031C000AE1ABE0AAA0DBB1DFA161B0619F014F0A2
:1031D0004F2D4A1B511188C0E3FC59C07601A42F22
:1031E000B0E2A1114FC0C40ED11C992309F45BC0F9
:1031F00040E0D6011196F60190836D01552309F444
:1032000048C0012F060F9A81582F507184FF03C0C8
:10321000913309F4015010160CF047C0093008F042
:1032200008E0EEE2FE2E5B01A01AB1088501919440
:10323000819491082F3F320729F4D601FC92F601C0
:1032400031966F016217730794F1021713077CF52B
:10325000DB01A21BB30BAA24A394B12CAC0EBD1EA0
:10326000AA0DBB1D11968C9121503109D6011196E2
:1032700028153905F4F0F60180836D01DBCFB12C00
:10328000A12CA0CFF701B1937F01A150AACF91113A
:10329000B0CFD601942F50E302C05D9391509111AD
:1032A000FCCFC40ED11C40E0ACCF01E0BACF80E32C
:1032B000DBCF6217730731F4963388F4953311F43A
:1032C000552369F0F6018083FD01842F90E281117E
:1032D00008C0A40FB11D1C9290E080E002CF81E3F2
:1032E000F1CF91938150F3CF911183CF8ACF2830C2
:1032F00008F027E03327DA01990F311D87FD91602F
:1033000000966105710539F432602E5F3D9330E31C
:103310002A95E1F708959F3F30F0803871056105E7
:1033200009F03C5F3C5F3D93913008F08068911D4F
:10333000DF93CF931F930F93FF92EF92192F987FF4
:103340009695E92F96959695E90FFF27E45EFE4F37
:1033500099273327EE24FF24A701E701059008945D
:10336000079428F4360FE71EF81E491F511D660FFB
:10337000771F881F991F0694A1F70590079428F4DA
:10338000E70EF81E491F561FC11D770F881F991F92
:10339000661F0694A1F70590079428F4F80E491FBC
:1033A000561FC71FD11D880F991F661F771F0694D0
:1033B000A1F70590079420F4490F561FC71FD81F87
:1033C000990F661F771F881F0694A9F7849110959F
:1033D000177041F0D695C79557954795F794E794A0
:1033E0001A95C1F7E2ECF0E06894159015913591CB
:1033F0006591959105907FE27395E118F10A430B71
:10340000560BC90BD009C0F7E10CF11E431F561F24
:10341000C91FD01D7EF4703311F48A95E6CFE8946D
:10342000015030F0080F0AF40027021708F4202F8B
:103430002395022F7A3328F079E37D932A95E9F7D3
:1034400010C07D932A9589F60694979567953795D0
:1034500017951794E118F10A430B560BC90BD009C5
:1034600098F023957E9173957A3308F070E37C93FE
:103470002013B8F77E9170617D9330F0839571E3EE
:103480007D9370E32A95E1F71124EF90FF900F915F
:103490001F91CF91DF91992787FD90950895DC01C9
:1034A000FC01672F71917723E1F7329704C07C917B
:1034B0006D9370836291AE17BF07C8F308950E94A1
:1034C000A11A08F481E00895E89409C097FB3EF43E
:1034D00090958095709561957F4F8F4F9F4F992361
:1034E000A9F0F92F96E9BB279395F69587957795DF
:1034F0006795B795F111F8CFFAF4BB0F11F460FF9F
:103500001BC06F5F7F4F8F4F9F4F16C0882311F0F6
:1035100096E911C0772321F09EE8872F762F05C00A
:10352000662371F096E8862F70E060E02AF09A95A5
:10353000660F771F881FDAF7880F9695879597F99A
:103540000895990F0008550FAA0BE0E8FEEF161634
:103550001706E807F907C0F012161306E407F50787
:1035600098F0621B730B840B950B39F40A2661F0FB
:10357000232B242B252B21F408950A2609F4A1409E
:10358000A6958FEF811D811D08950E94D81A0C9475
:10359000491B0E943B1B38F00E94421B20F09523E0
:1035A00011F00C94321B0C94381B11240C947D1BCD
:1035B0000E945A1B70F3959FC1F3950F50E0551F61
:1035C000629FF001729FBB27F00DB11D639FAA2778
:1035D000F00DB11DAA1F649F6627B00DA11D661FC7
:1035E000829F2227B00DA11D621F739FB00DA11DE8
:1035F000621F839FA00D611D221F749F3327A00DA2
:10360000611D231F849F600D211D822F762F6A2F3D
:1036100011249F5750409AF0F1F088234AF0EE0FA2
:10362000FF1FBB1F661F771F881F91505040A9F7CF
:103630009E3F510580F00C94321B0C947D1B5F3F24
:10364000E4F3983ED4F3869577956795B795F7950B
:10365000E7959F5FC1F7FE2B880F911D9695879583
:1036600097F9089597F99F6780E870E060E0089502
:103670009FEF80EC089500240A941616170618068A
:103680000906089500240A94121613061406050666
:103690000895092E0394000C11F4882352F0BB0FF7
:1036A00040F4BF2B11F460FF04C06F5F7F4F8F4F5A
:1036B0009F4F089557FD9058440F551F59F05F3F95
:1036C00071F04795880F97FB991F61F09F3F79F044
:1036D00087950895121613061406551FF2CF4695C6
:1036E000F1DF08C0161617061806991FF1CF869548
:1036F0007105610508940895E894BB27662777272C
:10370000CB0197F908952F923F924F925F926F925B
:103710007F928F929F92AF92BF92CF92DF92EF9261
:10372000FF920F931F93CF93DF93CDB7DEB7CA1BE2
:10373000DB0B0FB6F894DEBF0FBECDBF09942A880D
:10374000398848885F846E847D848C849B84AA84B5
:10375000B984C884DF80EE80FD800C811B81AA8142
:10376000B981CE0FD11D0FB6F894DEBF0FBECDBF0D
:10377000ED0108955058BB27AA270E94D21B0C9434
:10378000491B0E943B1B38F00E94421B20F039F479
:103790009F3F19F426F40C94381B0EF4E095E7FBD8
:1037A0000C94321BE92F0E945A1B58F3BA17620778
:1037B00073078407950720F079F4A6F50C947C1B19
:1037C0000EF4E0950B2EBA2FA02D0B01B90190013C
:1037D0000C01CA01A0011124FF27591B99F0593F80
:1037E00050F4503E68F11A16F040A22F232F342FC8
:1037F0004427585FF3CF469537952795A795F04016
:103800005395C9F77EF41F16BA0B620B730B840B2A
:10381000BAF09150A1F0FF0FBB1F661F771F881FE2
:10382000C2F70EC0BA0F621F731F841F48F487953A
:1038300077956795B795F7959E3F08F0B0CF93952C
:10384000880F08F09927EE0F9795879508950E94A5
:103850003B1C0C94491B0E94421B58F00E943B1BCE
:1038600040F029F45F3F29F00C94321B51110C9465
:103870007D1B0C94381B0E945A1B68F39923B1F3EB
:10388000552391F3951B550BBB27AA276217730786
:10389000840738F09F5F5F4F220F331F441FAA1F1A
:1038A000A9F335D00E2E3AF0E0E832D091505040D6
:1038B000E695001CCAF72BD0FE2F29D0660F771F84
:1038C000881FBB1F261737074807AB07B0E809F06A
:1038D000BB0B802DBF01FF2793585F4F3AF09E3FEF
:1038E000510578F00C94321B0C947D1B5F3FE4F380
:1038F000983ED4F3869577956795B795F7959F5F32
:10390000C9F7880F911D9695879597F90895E1E07D
:10391000660F771F881FBB1F621773078407BA07DC
:1039200020F0621B730B840BBA0BEE1F88F7E09537
:103930000895BEE304D008F490E80895BFE3222779
:103940003327A9010E94621B60F19F5748F1B91704
:1039500040F1BFE3B91B9927B8503AF4660F771FBF
:10396000881F991FB395D2F316C0B8504AF0232F81
:10397000342F452F562F672F782F8827B850BAF746
:10398000B85F49F086957795679557954795379530
:103990002795BA95B9F716F40E94191D88940895D1
:1039A000889460E070E0CB01089597FB16F40E94C4
:1039B000191D0C94DC1CE894F92F96EBFF2381F081
:1039C000121613061406440B9395F6958795779572
:1039D000679557954040FF23B9F71BC09927089575
:1039E000882351F49850D2F7872B762F652F542FC8
:1039F000432F322F20E0B1F3121613061406440BA6
:103A000088233AF09A95440F551F661F771F881F29
:103A1000CAF755234AF4440F551F11F460FF04C040
:103A20006F5F7F4F8F4F9F4F880F9695879597F9C0
:103A30000895909580957095609550954095309536
:103A400021953F4F4F4F5F4F6F4F7F4F8F4F9F4F8E
:103A500008950E94A11A08F48FEF08950E943E1D58
:103A600029ED3BE54EED5EE30C94C51A16F00C947F
:103A7000861D0C94381B68940C94321B0E94621BA8
:103A8000A8F39923C1F3AEF3DF93CF931F930F9362
:103A9000FF92C92FDD2788232AF02197660F771F11
:103AA000881FDAF720E030E040E85FEB9FE38839D9
:103AB00020F0803E38F021968F770E94BB1BE8E60D
:103AC000F0E004C00E94BB1BE5E9F0E00E94941DF9
:103AD0008B01BE01EC01FB2E6F5771097595771FA5
:103AE000880B990B0E94661A28E132E741E35FE3F5
:103AF0000E94D81AAF2D9801AE01FF900F911F912F
:103B0000CF91DF910E94D21B0C94491B9F3F31F053
:103B1000915020F4879577956795B795880F911DFB
:103B20009695879597F90895DF93CF931F930F93F9
:103B3000FF92EF92DF927B018C01689406C0DA2E2F
:103B4000EF010E94D81AFE01E894A59125913591C4
:103B500045915591A6F3EF010E94D21BFE019701FA
:103B6000A801DA9469F7DF90EF90FF900F911F9111
:103B7000CF91DF910895EE0FFF1F0590F491E02D96
:103B80000994002E083090F0982F872F762F652FFC
:103B9000542F432F322F22270850F4CF220F331FE8
:103BA000441F551F661F771F881F991F0A95B2F77C
:103BB000002D089597FD1094002E083098F00850BD
:103BC000232F342F452F562F672F782F892F912D94
:103BD000F4CF159497958795779567955795479561
:103BE000379527950A95AAF71124002D08950F936C
:103BF0001F93CF93DF938230910510F482E090E021
:103C0000E091E604F091E70430E020E0B0E0A0E0CD
:103C1000309799F42115310509F44AC0281B390B56
:103C200024303105D8F58A819B816115710589F1B0
:103C3000FB0193838283FE0111C040815181028187
:103C4000138148175907E0F04817590799F410975E
:103C500061F012960C93129713961C933296CF0133
:103C6000DF91CF911F910F9108950093E604109377
:103C7000E704F4CF2115310551F04217530738F00E
:103C8000A901DB019A01BD01DF01F801C1CFEF01FC
:103C9000F9CF9093E7048093E604CDCFFE01E20FC5
:103CA000F31F819391932250310939832883D7CF11
:103CB0002091E4043091E504232B41F420910E017E
:103CC00030910F013093E5042093E40420910C011E
:103CD00030910D012115310541F42DB73EB74091CA
:103CE000100150911101241B350BE091E404F09177
:103CF000E504E217F307A0F42E1B3F0B2817390742
:103D000078F0AC014E5F5F4F2417350748F04E0F37
:103D10005F1F5093E5044093E404819391939FCFF8
:103D2000F0E0E0E09CCFCF93DF930097E9F0FC0157
:103D3000329713821282A091E604B091E704ED015C
:103D400030E020E01097A1F420813181820F931F91
:103D50002091E4043091E5042817390709F061C087
:103D6000F093E504E093E404DF91CF910895EA0134
:103D7000CE17DF07E8F54A815B819E0141155105A9
:103D8000B1F7E901FB83EA8349915991C40FD51F2B
:103D9000EC17FD0761F4808191810296840F951FD5
:103DA000E90199838883828193819B838A83F0E0F0
:103DB000E0E012968D919C9113970097B9F52D91A3
:103DC0003C911197CD010296820F931F2091E4043C
:103DD0003091E5042817390739F6309751F51092DC
:103DE000E7041092E604B093E504A093E404BCCF8A
:103DF000D383C28340815181840F951FC817D9078F
:103E000061F44E5F5F4F88819981480F591F51833C
:103E100040838A819B81938382832115310509F038
:103E2000B0CFF093E704E093E6049ECFFD01DC0100
:103E3000C0CF13821282D7CFB0E0A0E0E2E2FFE170
:103E40000C94851B8C01009751F4CB010E94F71D47
:103E50008C01C801CDB7DEB7E0E10C94A11BFC01D9
:103E6000E60FF71F9C0122503109E217F30708F40F
:103E70009DC0D901CD91DC911197C617D70798F055
:103E8000C530D10530F3CE0104978617970708F3A4
:103E9000C61BD70B2297C193D1936D937C93CF010F
:103EA0000E94931ED6CF5B01AC1ABD0A4C018C0E4A
:103EB0009D1EA091E604B091E704512C412CF12CF9
:103EC000E12C109731F58091E4049091E504881578
:103ED000990509F05CC04616570608F058C0809155
:103EE0000C0190910D01009741F48DB79EB7409160
:103EF000100150911101841B950BE817F90708F088
:103F000055C0F093E504E093E404F9017183608304
:103F1000A0CF8D919C91119712966C901297139649
:103F20007C901397A815B90559F56C0142E0C40EB1
:103F3000D11CCA14DB0420F1AC014A195B09DA0177
:103F40001296159780F06282738251834083D90163
:103F50006D937C93E114F10471F0D7011396FC93F7
:103F6000EE93129776CF22968C0F9D1FF9019183C5
:103F70008083F301EFCFF093E704E093E60469CF89
:103F80004816590608F42C017D01D3019ACFCB01C4
:103F90000E94F71D7C01009749F0AE01B8010E9414
:103FA000D91FC8010E94931E870153CF10E000E083
:103FB00050CFFB01DC0102C001900D9241505040F6
:103FC000D8F70895FB01DC0101900D920020E1F784
:103FD0000895AEE0B0E0EFEEFFE10C94911B0D8987
:103FE0001E8986E08C831A8309838FEF9FE79E8367
:103FF0008D83AE01475E5F4F6F89788DCE0101964C
:104000000E940C202F813885020F131FF8011082A7
:104010002E96E4E00C94AD1BABE0B0E0E2E1F0E200
:104020000C94831B7C013B018A01FC0117821682E0
:10403000838181FFC8C1CE0101965C01F7019381A4
:10404000F30193FD859193FF81913F01882309F44A
:1040500053C1853239F493FD859193FF81913F01DE
:10406000853229F4B70190E00E94FC21E7CF912C22
:10407000212C312CFFE1F31538F08B3211F190F443
:10408000803209F1833229F137FC3CC020ED280F42
:104090002A3050F536FE20C08AE0989E200D11246B
:1040A000922E06C08D3291F0803371F7689430F80B
:1040B000F30193FD859193FF81913F018111DACF47
:1040C00021C0689431F8689432F8F2CF689433F8DC
:1040D000EFCF689434F8ECCFEAE02E9E200D112447
:1040E000222E689435F8E4CF8E3229F436FC04C1D0
:1040F000689436F8DDCF8C3619F4689437F8D8CF49
:104100008836B1F2982F9F7D95549330E0F0833636
:10411000A1F18337C1F1833509F063C02801F2E0D2
:104120004F0E511CF801C080D180692D70E036FC23
:1041300002C06FEF7FEFC6010E94E6214C01689438
:1041400037F882010AC00C5F1F4FFFE3F983882410
:104150008394912C6501E89437F833FE2DC0522CDE
:104160008114910471F5552009F468CFB70180E2FC
:1041700090E00E94FC215A94F6CFF8018081898357
:104180000E5F1F4FE4CF2801F2E04F0E511CF801E3
:10419000C080D180692D70E036FC02C06FEF7FEFE8
:1041A000C6010E94F1214C018201D5CFB70180E206
:1041B00090E00E94FC212A942814190409F0B0F719
:1041C000CECFF60137FC859137FE81916F01B701A3
:1041D00090E00E94FC2151105A94F1E08F1A91084E
:1041E000BFCF843619F0893609F077C0F80137FE61
:1041F0006BC060817181828193810C5F1F4FF32DB1
:10420000FF763F2E97FF09C0909580957095619538
:104210007F4F8F4F9F4F689437F82AE030E0A50119
:104220000E942C22C82ECA188C2C432C36FE0CC09F
:10423000E89440F8C91440F434FE05C032FC03C0D1
:10424000F32DFE7E4F2E892C44FE95C0FE01EC0D11
:10425000F11D8081803309F087C0242D297E422EF4
:10426000842D8870582E43FC95C040FE8FC09C2C36
:10427000821418F42C0C922C981844FE91C0B701AB
:1042800080E390E00E94FC2142FE09C088E790E0B4
:1042900041FE02C088E590E0B7010E94FC21C914EC
:1042A00008F48AC0CA94D12C9FEFC91AD90ACA0C43
:1042B000DB1CF60182916F01B70190E00E94FC21A6
:1042C000AC14BD04B1F74FCF60817181072E000C93
:1042D000880B990B0E5F1F4F92CFD32CE894D4F824
:1042E0002AE030E0853739F1232D297FD22E8F3611
:1042F00001F148F48835A9F0F701868197812B9662
:10430000E2E10C949F1B803749F08837A9F7D4FE6F
:1043100002C06894D2F820E130E00DC06894D4F86F
:10432000F6CF34FE03C0822F8660D82E20E132E023
:1043300002C028E030E0F801D7FE0FC06081718133
:10434000828193810C5F1F4FA5010E942C22C82EF1
:10435000CA183D2CE89437F867CF6081718190E0EE
:1043600080E00E5F1F4FF0CF42FC02C0839478CFF5
:104370008394839475CF842D867809F471CFF6CF1A
:10438000B70180E290E00E94FC2183948214C0F384
:10439000512C73CF522C5818821408F46ECFF8CFDA
:1043A000842D867809F47BCF8BE241FE80E247FCC6
:1043B0008DE2B70190E071CFB70180E390E00E94F9
:1043C000FC219A946CCF8FEF9FEF99CFFC01059061
:1043D000615070400110D8F7809590958E0F9F1F07
:1043E0000895FC016150704001900110D8F780954C
:1043F00090958E0F9F1F08950F931F93CF93DF9378
:10440000182F092FEB018B8181FD09C01FEF0FEFE2
:10441000812F902FDF91CF911F910F91089582FFEF
:1044200014C02E813F818C819D81281739073CF46F
:10443000E881F981CF0101969983888310838E8169
:104440009F8101969F838E83E3CFE885F985812F35
:104450000995892BA1F3DACFFA01AA27283051F167
:10446000203181F1E8946F936E7F6E5F7F4F8F4FA5
:104470009F4FAF4FB1E03ED0B4E03CD0670F781F04
:10448000891F9A1FA11D680F791F8A1F911DA11DE9
:104490006A0F711D811D911DA11D20D009F4689422
:1044A0003F912AE0269F11243019305D3193DEF6CA
:1044B000CF010895462F4770405D4193B3E00FD080
:1044C000C9F7F6CF462F4F70405D4A3318F0495D6B
:1044D00031FD4052419302D0A9F7EACFB4E0A6954E
:1044E0009795879577956795BA95C9F70097610570
:1044F000710508959B01AC010A2E069457954795C6
:1045000037952795BA95C9F7620F731F841F951FBA
:08451000A01D0895F894FFCFEF
:10451800E20464036403FFFFFF0105000000E804F0
:10452800800000007442000046C30000DCC2008026
:1045380089C3008093C300007C4200003BC3000095
:10454800D2C2000074C3000085C30000824200008C
:1045580033C30000C8C2000052C300006BC3000090
:104568008642000023C30000BAC2000030C3000026
:1045780047C300008A4200000FC30000A4C2000025
:104588000AC3000016C300008E420000FEC20000ED
:104598008AC20000BEC20000C8C2000092420000E9
:1045A800DAC200004CC200004CC2000068C2000021
:1045B80096420000A8C20000D8C100000000000018
:1045C800000000009A4200006CC2000000000000D9
:1045D80028420000444200009E420000F8C100004A
:1045E800A8410000C2420000B6420000A2420000FA
:1045F800000000000C4200001E430000FE420000C4
:10460800A642000010420000284200005243000069
:1046180019430000AA420000824200004442000000
:104628007E4300002F430000AE420000A842000075
:10463800784200009343000045430000B242000066
:10464800C24200008E420080A0430000694300007F
:10465800B6420000D442000098420080A9430000FE
:1046680075430000BA420000DC420000A24200008C
:10467800B243000084430000BE420000E042000054
:10468800AC420000C54300008E4300000000230236
:104698008301B0017002E101BF01D3010D0A00419D
:1046A800413A42423A43433A44443A45453A4646F7
:1046B8003A30303A30310025303258202D206D6F95
:1046C80064656C3A2025642C2076657273696F6E78
:1046D8003A2025642C207265766973696F6E3A20DA
:1046E8002564004465766963652049443A200025BD
:1046F8003032583A253032583A253032583A253037
:1047080032583A253032583A253032583A25303224
:10471800583A2530325800556E69717565204944FC
:104728003A200050414E3A20253032582C20536808
:104738006F727420416464726573733A2025303255
:1047480058004E6574776F726B20494420262044C8
:10475800657669636520416464726573733A200005
:104768004461746120726174653A202575206B621A
:104778002F732C205052463A202575204D487A2C0C
:1047880020507265616D626C653A202575207379D9
:104798006D626F6C732C204368616E6E656C3A2095
:1047A8002325752C20507265616D626C6520636FDE
:1047B80064652023257500446576696365206D6FFF
:1047C80064653A200052616E67653A2000206D00EA
:1047D8000920525820706F7765723A200020644291
:1047E8006D0052616E67652066726F6D3A20002019
:1047F8003D2000466F756E6420706F736974696F31
:0E4808006E202D20783A200020793A20000002
:107E0000112484B714BE81FFF0D085E080938100F7
:107E100082E08093C00088E18093C10086E0809377
:107E2000C20080E18093C4008EE0C9D0259A86E02C
:107E300020E33CEF91E0309385002093840096BBD3
:107E4000B09BFECF1D9AA8958150A9F7CC24DD24C4
:107E500088248394B5E0AB2EA1E19A2EF3E0BF2EE7
:107E6000A2D0813461F49FD0082FAFD0023811F036
:107E7000013811F484E001C083E08DD089C08234E0
:107E800011F484E103C0853419F485E0A6D080C0E4
:107E9000853579F488D0E82EFF2485D0082F10E0AE
:107EA000102F00270E291F29000F111F8ED06801E7
:107EB0006FC0863521F484E090D080E0DECF843638
:107EC00009F040C070D06FD0082F6DD080E0C81688
:107ED00080E7D80618F4F601B7BEE895C0E0D1E017
:107EE00062D089930C17E1F7F0E0CF16F0E7DF06D8
:107EF00018F0F601B7BEE89568D007B600FCFDCFD4
:107F0000A601A0E0B1E02C9130E011968C91119780
:107F100090E0982F8827822B932B1296FA010C0160
:107F200087BEE89511244E5F5F4FF1E0A038BF0790
:107F300051F7F601A7BEE89507B600FCFDCF97BE46
:107F4000E89526C08437B1F42ED02DD0F82E2BD052
:107F50003CD0F601EF2C8F010F5F1F4F84911BD097
:107F6000EA94F801C1F70894C11CD11CFA94CF0C13
:107F7000D11C0EC0853739F428D08EE10CD085E9AC
:107F80000AD08FE07ACF813511F488E018D01DD067
:107F900080E101D065CF982F8091C00085FFFCCF94
:107FA0009093C60008958091C00087FFFCCF809118
:107FB000C00084FD01C0A8958091C6000895E0E648
:107FC000F0E098E1908380830895EDDF803219F02E
:107FD00088E0F5DFFFCF84E1DECF1F93182FE3DFCA
:107FE0001150E9F7F2DF1F91089580E0E8DFEE27F6
:047FF000FF270994CA
:027FFE00040479
:0400000300007E007B
:00000001FF
